{
  "transactions": [
    {
      "hash": "0xed2e7e41708fe350509836fe14388a19d47cb66cda3f917147637bd3a8168c5d",
      "transactionType": "CALL",
      "contractName": null,
      "contractAddress": "0x469e9b58443e6b455f122521d41040d57ce8eca8",
      "function": "createDrop(uint256,uint256,uint256,bool,bool,uint32)",
      "arguments": [
        "1000000000000000",
        "4000000000000000",
        "4",
        "true",
        "false",
        "2"
      ],
      "transaction": {
        "from": "0x796bf5d41d2ed38f696b7cec2cc039d182b2e0db",
        "to": "0x469e9b58443e6b455f122521d41040d57ce8eca8",
        "gas": "0x45568",
        "value": "0x0",
        "input": "0x8478a6d800000000000000000000000000000000000000000000000000038d7ea4c68000000000000000000000000000000000000000000000000000000e35fa931a00000000000000000000000000000000000000000000000000000000000000000004000000000000000000000000000000000000000000000000000000000000000100000000000000000000000000000000000000000000000000000000000000000000000000000000000000000000000000000000000000000000000000000002",
        "nonce": "0x315",
        "chainId": "0x14a34"
      },
      "additionalContracts": [],
      "isFixedGasLimit": false
    }
  ],
  "receipts": [
    {
      "status": "0x1",
      "cumulativeGasUsed": "0x4e50ed",
      "logs": [
        {
          "address": "0x469e9b58443e6b455f122521d41040d57ce8eca8",
          "topics": [
            "0x29574360eefbb5922c7bc9cb3ddf5b79d8a9ad9d223d54d4dc1cbc95ec2b6613",
            "0x0000000000000000000000000000000000000000000000000000000000000001",
            "0x000000000000000000000000796bf5d41d2ed38f696b7cec2cc039d182b2e0db"
          ],
          "data": "0x00000000000000000000000000000000000000000000000000038d7ea4c68000000000000000000000000000000000000000000000000000000e35fa931a00000000000000000000000000000000000000000000000000000000000000000004000000000000000000000000000000000000000000000000000000000000000100000000000000000000000000000000000000000000000000000000000000000000000000000000000000000000000000000000000000000000000000000002",
          "blockHash": "0xde34858d1d2e6b4c47e1026a1bc3f3b173284824490e0fce3e9a7fb045df5b1a",
          "blockNumber": "0x1821766",
          "blockTimestamp": "0x68178dac",
          "transactionHash": "0xed2e7e41708fe350509836fe14388a19d47cb66cda3f917147637bd3a8168c5d",
          "transactionIndex": "0x37",
          "logIndex": "0x1a",
          "removed": false
        }
      ],
      "logsBloom": "0x00000000000000000000000000000000000000000000000800000040000000000000000000000000000000010000000000000000000000000000000000040000000000000000000000000000000000000000000000040000000000000001000000200000000000000000000000000000000000000000000000000000000000000000000000000000000000000000000000000000000000000000000000000000000000400200000000000008000000000000000000000000000000000000000000000000000000000000000000000000000000000000000000000000000040000000000000000000000000000000000400000000000000000000000000000000",
      "type": "0x2",
      "transactionHash": "0xed2e7e41708fe350509836fe14388a19d47cb66cda3f917147637bd3a8168c5d",
      "transactionIndex": "0x37",
      "blockHash": "0xde34858d1d2e6b4c47e1026a1bc3f3b173284824490e0fce3e9a7fb045df5b1a",
      "blockNumber": "0x1821766",
      "gasUsed": "0x2f692",
      "effectiveGasPrice": "0xf0aa1",
      "from": "0x796bf5d41d2ed38f696b7cec2cc039d182b2e0db",
      "to": "0x469e9b58443e6b455f122521d41040d57ce8eca8",
      "contractAddress": null,
      "l1BaseFeeScalar": "0x44d",
      "l1BlobBaseFee": "0x1",
      "l1BlobBaseFeeScalar": "0xa118b",
      "l1Fee": "0x1808098ef4",
      "l1GasPrice": "0xda44d0a52",
      "l1GasUsed": "0x640"
    }
  ],
  "libraries": [],
  "pending": [],
  "returns": {},
  "timestamp": 1746374062,
  "chain": 84532,
  "commit": "5297405"
}