{
  "transactions": [
    {
      "hash": "0x56ab322029804140f8cca79d3b9dabbdb424cdd2b94b8cf282771e9c3409f7c0",
      "transactionType": "CALL",
      "contractName": null,
      "contractAddress": "0x469e9b58443e6b455f122521d41040d57ce8eca8",
      "function": "createDrop(uint256,uint256,uint256,bool,bool,uint32)",
      "arguments": [
        "1000000000000000",
        "4000000000000000",
        "4",
        "true",
        "false",
        "2"
      ],
      "transaction": {
        "from": "0x796bf5d41d2ed38f696b7cec2cc039d182b2e0db",
        "to": "0x469e9b58443e6b455f122521d41040d57ce8eca8",
        "gas": "0x45568",
        "value": "0x0",
        "input": "0x8478a6d800000000000000000000000000000000000000000000000000038d7ea4c68000000000000000000000000000000000000000000000000000000e35fa931a00000000000000000000000000000000000000000000000000000000000000000004000000000000000000000000000000000000000000000000000000000000000100000000000000000000000000000000000000000000000000000000000000000000000000000000000000000000000000000000000000000000000000000002",
        "nonce": "0x316",
        "chainId": "0x14a34"
      },
      "additionalContracts": [],
      "isFixedGasLimit": false
    }
  ],
  "receipts": [
    {
      "status": "0x1",
      "cumulativeGasUsed": "0x8f2138",
      "logs": [
        {
          "address": "0x469e9b58443e6b455f122521d41040d57ce8eca8",
          "topics": [
            "0x29574360eefbb5922c7bc9cb3ddf5b79d8a9ad9d223d54d4dc1cbc95ec2b6613",
            "0x0000000000000000000000000000000000000000000000000000000000000002",
            "0x000000000000000000000000796bf5d41d2ed38f696b7cec2cc039d182b2e0db"
          ],
          "data": "0x00000000000000000000000000000000000000000000000000038d7ea4c68000000000000000000000000000000000000000000000000000000e35fa931a00000000000000000000000000000000000000000000000000000000000000000004000000000000000000000000000000000000000000000000000000000000000100000000000000000000000000000000000000000000000000000000000000000000000000000000000000000000000000000000000000000000000000000002",
          "blockHash": "0xea4bb0536688ebcb33b964cd59420f45a5659be17699696157757b83d7dce44a",
          "blockNumber": "0x1821b18",
          "blockTimestamp": "0x68179510",
          "transactionHash": "0x56ab322029804140f8cca79d3b9dabbdb424cdd2b94b8cf282771e9c3409f7c0",
          "transactionIndex": "0x4b",
          "logIndex": "0x6e",
          "removed": false
        }
      ],
      "logsBloom": "0x04000000000000000000000000000000000000000000000800000040000000000000000000000000000000010000000000000000000000000000000000000000000000000000000000000000000000000000000000000000000000000001000000200000000000000000000000000000000000000000000000000000000000000000000000000000000000000000000000000000000000000000000000000000000000400200000000000108000000000000000000000000000000000000000000000000000000000000000000000000000000000000000000000000000000000000000000000000000000000000000400000000008000000000000000000000",
      "type": "0x2",
      "transactionHash": "0x56ab322029804140f8cca79d3b9dabbdb424cdd2b94b8cf282771e9c3409f7c0",
      "transactionIndex": "0x4b",
      "blockHash": "0xea4bb0536688ebcb33b964cd59420f45a5659be17699696157757b83d7dce44a",
      "blockNumber": "0x1821b18",
      "gasUsed": "0x2f692",
      "effectiveGasPrice": "0xe9abd",
      "from": "0x796bf5d41d2ed38f696b7cec2cc039d182b2e0db",
      "to": "0x469e9b58443e6b455f122521d41040d57ce8eca8",
      "contractAddress": null,
      "l1BaseFeeScalar": "0x44d",
      "l1BlobBaseFee": "0x1",
      "l1BlobBaseFeeScalar": "0xa118b",
      "l1Fee": "0xbe4256018",
      "l1GasPrice": "0x6c00eb4a9",
      "l1GasUsed": "0x640"
    }
  ],
  "libraries": [],
  "pending": [],
  "returns": {},
  "timestamp": 1746375954,
  "chain": 84532,
  "commit": "5297405"
}