{
  "transactions": [
    {
      "hash": "0x7bcbaf9bc160acaf014e5b6e792094233d01d563d246e7dbe903f01db7cb668b",
      "transactionType": "CALL",
      "contractName": null,
      "contractAddress": "0x1ca241d5b19b0707fbd0d54f9dd1ab3f66d7261c",
      "function": "createDrop(uint256,uint256,uint256,bool,bool,uint32)",
      "arguments": [
        "1000000000000000",
        "4000000000000000",
        "4",
        "true",
        "false",
        "2"
      ],
      "transaction": {
        "from": "0x796bf5d41d2ed38f696b7cec2cc039d182b2e0db",
        "to": "0x1ca241d5b19b0707fbd0d54f9dd1ab3f66d7261c",
        "gas": "0x45568",
        "value": "0x0",
        "input": "0x8478a6d800000000000000000000000000000000000000000000000000038d7ea4c68000000000000000000000000000000000000000000000000000000e35fa931a00000000000000000000000000000000000000000000000000000000000000000004000000000000000000000000000000000000000000000000000000000000000100000000000000000000000000000000000000000000000000000000000000000000000000000000000000000000000000000000000000000000000000000002",
        "nonce": "0x31f",
        "chainId": "0x14a34"
      },
      "additionalContracts": [],
      "isFixedGasLimit": false
    }
  ],
  "receipts": [
    {
      "status": "0x1",
      "cumulativeGasUsed": "0x8067b5",
      "logs": [
        {
          "address": "0x1ca241d5b19b0707fbd0d54f9dd1ab3f66d7261c",
          "topics": [
            "0x29574360eefbb5922c7bc9cb3ddf5b79d8a9ad9d223d54d4dc1cbc95ec2b6613",
            "0x0000000000000000000000000000000000000000000000000000000000000002",
            "0x000000000000000000000000796bf5d41d2ed38f696b7cec2cc039d182b2e0db"
          ],
          "data": "0x00000000000000000000000000000000000000000000000000038d7ea4c68000000000000000000000000000000000000000000000000000000e35fa931a00000000000000000000000000000000000000000000000000000000000000000004000000000000000000000000000000000000000000000000000000000000000100000000000000000000000000000000000000000000000000000000000000000000000000000000000000000000000000000000000000000000000000000002",
          "blockHash": "0x4fcc08511a413525c7bfa681f76d1a8e8500390fa5dcef4a9410a3b266147145",
          "blockNumber": "0x1821ed8",
          "blockTimestamp": "0x68179c90",
          "transactionHash": "0x7bcbaf9bc160acaf014e5b6e792094233d01d563d246e7dbe903f01db7cb668b",
          "transactionIndex": "0x5a",
          "logIndex": "0x97",
          "removed": false
        }
      ],
      "logsBloom": "0x04000000000000000000000000000000000000000000000800000000000000000000000000000000000000010000000000000000000000000000000000000000000000040000000000000000000000000000000000000000000000000001000000000000000000000000000000000000000000000000000000000000000000000000000000000000000000000000000000000000000000000000000000000000000000000200000000000108000000000000000000000000000000000000000000000000000000000000000002000000000000100000000000000000000000000000000000000000000000000000000400000000008000000000000000000000",
      "type": "0x2",
      "transactionHash": "0x7bcbaf9bc160acaf014e5b6e792094233d01d563d246e7dbe903f01db7cb668b",
      "transactionIndex": "0x5a",
      "blockHash": "0x4fcc08511a413525c7bfa681f76d1a8e8500390fa5dcef4a9410a3b266147145",
      "blockNumber": "0x1821ed8",
      "gasUsed": "0x2f692",
      "effectiveGasPrice": "0xf0a9c",
      "from": "0x796bf5d41d2ed38f696b7cec2cc039d182b2e0db",
      "to": "0x1ca241d5b19b0707fbd0d54f9dd1ab3f66d7261c",
      "contractAddress": null,
      "l1BaseFeeScalar": "0x44d",
      "l1BlobBaseFee": "0x1",
      "l1BlobBaseFeeScalar": "0xa118b",
      "l1Fee": "0x12dd789788",
      "l1GasPrice": "0xab5867d67",
      "l1GasUsed": "0x640"
    }
  ],
  "libraries": [],
  "pending": [],
  "returns": {},
  "timestamp": 1746377873,
  "chain": 84532,
  "commit": "5297405"
}