{
  "transactions": [
    {
      "hash": "0x86e03d5d7be358095e61bbd841e81cdbbc3d83483b41d87352c558d836e39d01",
      "transactionType": "CALL",
      "contractName": null,
      "contractAddress": "0x786190c74e45df73b6fd8b61a9664bcb855e6ddb",
      "function": "createDrop(uint256,uint256,uint256,bool,bool,uint32)",
      "arguments": [
        "1000000000000000",
        "4000000000000000",
        "4",
        "true",
        "false",
        "2"
      ],
      "transaction": {
        "from": "0x796bf5d41d2ed38f696b7cec2cc039d182b2e0db",
        "to": "0x786190c74e45df73b6fd8b61a9664bcb855e6ddb",
        "gas": "0x45568",
        "value": "0x0",
        "input": "0x8478a6d800000000000000000000000000000000000000000000000000038d7ea4c68000000000000000000000000000000000000000000000000000000e35fa931a00000000000000000000000000000000000000000000000000000000000000000004000000000000000000000000000000000000000000000000000000000000000100000000000000000000000000000000000000000000000000000000000000000000000000000000000000000000000000000000000000000000000000000002",
        "nonce": "0x30e",
        "chainId": "0x14a34"
      },
      "additionalContracts": [],
      "isFixedGasLimit": false
    }
  ],
  "receipts": [
    {
      "status": "0x1",
      "cumulativeGasUsed": "0x4e7335",
      "logs": [
        {
          "address": "0x786190c74e45df73b6fd8b61a9664bcb855e6ddb",
          "topics": [
            "0x29574360eefbb5922c7bc9cb3ddf5b79d8a9ad9d223d54d4dc1cbc95ec2b6613",
            "0x0000000000000000000000000000000000000000000000000000000000000001",
            "0x000000000000000000000000796bf5d41d2ed38f696b7cec2cc039d182b2e0db"
          ],
          "data": "0x00000000000000000000000000000000000000000000000000038d7ea4c68000000000000000000000000000000000000000000000000000000e35fa931a00000000000000000000000000000000000000000000000000000000000000000004000000000000000000000000000000000000000000000000000000000000000100000000000000000000000000000000000000000000000000000000000000000000000000000000000000000000000000000000000000000000000000000002",
          "blockHash": "0x474302294da04a8fe3ff4c172f429ded82f42509c664e6ccacab1352f65ad104",
          "blockNumber": "0x1818e80",
          "blockTimestamp": "0x68167be0",
          "transactionHash": "0x86e03d5d7be358095e61bbd841e81cdbbc3d83483b41d87352c558d836e39d01",
          "transactionIndex": "0x22",
          "logIndex": "0x9d",
          "removed": false
        }
      ],
      "logsBloom": "0x00000000000000000000000002000000000000000000000800000000000000000000000000000000000000010000000000000000000000000000000000040000000000000000000000000000000000000000000000040000000000000001000000000000000000000000000000000000000000000000000000000000000000000000000000000000000000000000000000000000000000000000000000000000000000000200000000000008000000000000000000000000000000000000000000000000000000000000000000000000000000000000000000040000000040000000000000000000000000000000000400000008000000000000000000000000",
      "type": "0x2",
      "transactionHash": "0x86e03d5d7be358095e61bbd841e81cdbbc3d83483b41d87352c558d836e39d01",
      "transactionIndex": "0x22",
      "blockHash": "0x474302294da04a8fe3ff4c172f429ded82f42509c664e6ccacab1352f65ad104",
      "blockNumber": "0x1818e80",
      "gasUsed": "0x2f692",
      "effectiveGasPrice": "0xe639a",
      "from": "0x796bf5d41d2ed38f696b7cec2cc039d182b2e0db",
      "to": "0x786190c74e45df73b6fd8b61a9664bcb855e6ddb",
      "contractAddress": null,
      "l1BaseFeeScalar": "0x44d",
      "l1BlobBaseFee": "0x1",
      "l1BlobBaseFeeScalar": "0xa118b",
      "l1Fee": "0x57b78db76",
      "l1GasPrice": "0x31cb3fb28",
      "l1GasUsed": "0x640"
    }
  ],
  "libraries": [],
  "pending": [],
  "returns": {},
  "timestamp": 1746303968,
  "chain": 84532,
  "commit": "5297405"
}