{
  "transactions": [
    {
      "hash": "0xee3fc23ef9e20ec8fa78a43e69f21a6007ea8822f551b881d58e353bbb39e676",
      "transactionType": "CALL",
      "contractName": null,
      "contractAddress": "0x68c3a6915e69e28222b79255bede08a1f3303e84",
      "function": "createDrop(uint256,uint256,uint256,bool,bool,uint32)",
      "arguments": [
        "1000000000000000",
        "4000000000000000",
        "4",
        "true",
        "false",
        "2"
      ],
      "transaction": {
        "from": "0x796bf5d41d2ed38f696b7cec2cc039d182b2e0db",
        "to": "0x68c3a6915e69e28222b79255bede08a1f3303e84",
        "gas": "0x45568",
        "value": "0x0",
        "input": "0x8478a6d800000000000000000000000000000000000000000000000000038d7ea4c68000000000000000000000000000000000000000000000000000000e35fa931a00000000000000000000000000000000000000000000000000000000000000000004000000000000000000000000000000000000000000000000000000000000000100000000000000000000000000000000000000000000000000000000000000000000000000000000000000000000000000000000000000000000000000000002",
        "nonce": "0x323",
        "chainId": "0x14a34"
      },
      "additionalContracts": [],
      "isFixedGasLimit": false
    }
  ],
  "receipts": [
    {
      "status": "0x1",
      "cumulativeGasUsed": "0xb4cd75",
      "logs": [
        {
          "address": "0x68c3a6915e69e28222b79255bede08a1f3303e84",
          "topics": [
            "0x29574360eefbb5922c7bc9cb3ddf5b79d8a9ad9d223d54d4dc1cbc95ec2b6613",
            "0x0000000000000000000000000000000000000000000000000000000000000001",
            "0x000000000000000000000000796bf5d41d2ed38f696b7cec2cc039d182b2e0db"
          ],
          "data": "0x00000000000000000000000000000000000000000000000000038d7ea4c68000000000000000000000000000000000000000000000000000000e35fa931a00000000000000000000000000000000000000000000000000000000000000000004000000000000000000000000000000000000000000000000000000000000000100000000000000000000000000000000000000000000000000000000000000000000000000000000000000000000000000000000000000000000000000000002",
          "blockHash": "0x95ff3dadecec71b7a672934f38453b0bfb69f2fd396daea6e2888c59cb39bbeb",
          "blockNumber": "0x1822004",
          "blockTimestamp": "0x68179ee8",
          "transactionHash": "0xee3fc23ef9e20ec8fa78a43e69f21a6007ea8822f551b881d58e353bbb39e676",
          "transactionIndex": "0x7b",
          "logIndex": "0x128",
          "removed": false
        }
      ],
      "logsBloom": "0x00000000000000000000000000000000000000000000000800000000000000000000000000000000000010010000000000000000000004000000000000040000000000000000000000000000000000000000000000040000000000000001000000000000000000000000000000000000000000000000000000000000000000000000000000000000000000000000008000000000000000000000000000000000000000000200000000000008000000000000000000000000000000000000000000000000000000000000000000000000000000000000000000000000000040000000000000000000000000000000000400000000000000000000000000000000",
      "type": "0x2",
      "transactionHash": "0xee3fc23ef9e20ec8fa78a43e69f21a6007ea8822f551b881d58e353bbb39e676",
      "transactionIndex": "0x7b",
      "blockHash": "0x95ff3dadecec71b7a672934f38453b0bfb69f2fd396daea6e2888c59cb39bbeb",
      "blockNumber": "0x1822004",
      "gasUsed": "0x2f692",
      "effectiveGasPrice": "0xf4532",
      "from": "0x796bf5d41d2ed38f696b7cec2cc039d182b2e0db",
      "to": "0x68c3a6915e69e28222b79255bede08a1f3303e84",
      "contractAddress": null,
      "l1BaseFeeScalar": "0x44d",
      "l1BlobBaseFee": "0x1",
      "l1BlobBaseFeeScalar": "0xa118b",
      "l1Fee": "0x161eb62108",
      "l1GasPrice": "0xc8e870290",
      "l1GasUsed": "0x640"
    }
  ],
  "libraries": [],
  "pending": [],
  "returns": {},
  "timestamp": 1746378473,
  "chain": 84532,
  "commit": "5297405"
}