{
  "transactions": [
    {
      "hash": "0x807be6e6e89b4e6bb12135b0e80f714eff590d2ca29224c7c655f3b69b41237d",
      "transactionType": "CALL",
      "contractName": null,
      "contractAddress": "0x68c3a6915e69e28222b79255bede08a1f3303e84",
      "function": "createDrop(uint256,uint256,uint256,bool,bool,uint32)",
      "arguments": [
        "1000000000000000",
        "4000000000000000",
        "4",
        "true",
        "true",
        "2"
      ],
      "transaction": {
        "from": "0x796bf5d41d2ed38f696b7cec2cc039d182b2e0db",
        "to": "0x68c3a6915e69e28222b79255bede08a1f3303e84",
        "gas": "0x408ba",
        "value": "0x0",
        "input": "0x8478a6d800000000000000000000000000000000000000000000000000038d7ea4c68000000000000000000000000000000000000000000000000000000e35fa931a00000000000000000000000000000000000000000000000000000000000000000004000000000000000000000000000000000000000000000000000000000000000100000000000000000000000000000000000000000000000000000000000000010000000000000000000000000000000000000000000000000000000000000002",
        "nonce": "0x322",
        "chainId": "0x14a34"
      },
      "additionalContracts": [],
      "isFixedGasLimit": false
    }
  ],
  "receipts": [
    {
      "status": "0x1",
      "cumulativeGasUsed": "0x839134",
      "logs": [
        {
          "address": "0x68c3a6915e69e28222b79255bede08a1f3303e84",
          "topics": [
            "0x29574360eefbb5922c7bc9cb3ddf5b79d8a9ad9d223d54d4dc1cbc95ec2b6613",
            "0x0000000000000000000000000000000000000000000000000000000000000000",
            "0x000000000000000000000000796bf5d41d2ed38f696b7cec2cc039d182b2e0db"
          ],
          "data": "0x00000000000000000000000000000000000000000000000000038d7ea4c68000000000000000000000000000000000000000000000000000000e35fa931a00000000000000000000000000000000000000000000000000000000000000000004000000000000000000000000000000000000000000000000000000000000000100000000000000000000000000000000000000000000000000000000000000010000000000000000000000000000000000000000000000000000000000000002",
          "blockHash": "0x85e71ea3dd332769189688a286ff35867b28bf0f738267d6afb03397e0525e93",
          "blockNumber": "0x1821fec",
          "blockTimestamp": "0x68179eb8",
          "transactionHash": "0x807be6e6e89b4e6bb12135b0e80f714eff590d2ca29224c7c655f3b69b41237d",
          "transactionIndex": "0x53",
          "logIndex": "0xe7",
          "removed": false
        }
      ],
      "logsBloom": "0x00000000000000000000000000000000000000000000000800000000000000000000000000000000000010010000000000000000000004000000000000000000000000000000000000000000000000000000000000000000000000000001000000000000020000000000000000000800000000000000000000000000000000000000000000000000000000000000008000000000000000000000000000000000000000000200000000000008000000000000000000000000000000000000000000000000000000000000000000000000000000000000000000000000000020000000000000000000000000000000000400000000000000000000000000000000",
      "type": "0x2",
      "transactionHash": "0x807be6e6e89b4e6bb12135b0e80f714eff590d2ca29224c7c655f3b69b41237d",
      "transactionIndex": "0x53",
      "blockHash": "0x85e71ea3dd332769189688a286ff35867b28bf0f738267d6afb03397e0525e93",
      "blockNumber": "0x1821fec",
      "gasUsed": "0x2ebae",
      "effectiveGasPrice": "0xf4531",
      "from": "0x796bf5d41d2ed38f696b7cec2cc039d182b2e0db",
      "to": "0x68c3a6915e69e28222b79255bede08a1f3303e84",
      "contractAddress": null,
      "l1BaseFeeScalar": "0x44d",
      "l1BlobBaseFee": "0x1",
      "l1BlobBaseFeeScalar": "0xa118b",
      "l1Fee": "0x190feeffaf",
      "l1GasPrice": "0xe3a1b15ff",
      "l1GasUsed": "0x640"
    }
  ],
  "libraries": [],
  "pending": [],
  "returns": {},
  "timestamp": 1746378426,
  "chain": 84532,
  "commit": "5297405"
}