{
  "transactions": [
    {
      "hash": "0xc8f69e43652256884fda298a077491e58af812da1f9ae593c2f1ae4c7fde6b66",
      "transactionType": "CALL",
      "contractName": null,
      "contractAddress": "0x469e9b58443e6b455f122521d41040d57ce8eca8",
      "function": "createDrop(uint256,uint256,uint256,bool,bool,uint32)",
      "arguments": [
        "1000000000000000",
        "4000000000000000",
        "4",
        "true",
        "true",
        "2"
      ],
      "transaction": {
        "from": "0x796bf5d41d2ed38f696b7cec2cc039d182b2e0db",
        "to": "0x469e9b58443e6b455f122521d41040d57ce8eca8",
        "gas": "0x408ba",
        "value": "0x0",
        "input": "0x8478a6d800000000000000000000000000000000000000000000000000038d7ea4c68000000000000000000000000000000000000000000000000000000e35fa931a00000000000000000000000000000000000000000000000000000000000000000004000000000000000000000000000000000000000000000000000000000000000100000000000000000000000000000000000000000000000000000000000000010000000000000000000000000000000000000000000000000000000000000002",
        "nonce": "0x314",
        "chainId": "0x14a34"
      },
      "additionalContracts": [],
      "isFixedGasLimit": false
    }
  ],
  "receipts": [
    {
      "status": "0x1",
      "cumulativeGasUsed": "0x49e3ab",
      "logs": [
        {
          "address": "0x469e9b58443e6b455f122521d41040d57ce8eca8",
          "topics": [
            "0x29574360eefbb5922c7bc9cb3ddf5b79d8a9ad9d223d54d4dc1cbc95ec2b6613",
            "0x0000000000000000000000000000000000000000000000000000000000000000",
            "0x000000000000000000000000796bf5d41d2ed38f696b7cec2cc039d182b2e0db"
          ],
          "data": "0x00000000000000000000000000000000000000000000000000038d7ea4c68000000000000000000000000000000000000000000000000000000e35fa931a00000000000000000000000000000000000000000000000000000000000000000004000000000000000000000000000000000000000000000000000000000000000100000000000000000000000000000000000000000000000000000000000000010000000000000000000000000000000000000000000000000000000000000002",
          "blockHash": "0x9587e7faa77162088c3777ad324885bfd2593c15d332c73c23be94663fbe349d",
          "blockNumber": "0x182172e",
          "blockTimestamp": "0x68178d3c",
          "transactionHash": "0xc8f69e43652256884fda298a077491e58af812da1f9ae593c2f1ae4c7fde6b66",
          "transactionIndex": "0x29",
          "logIndex": "0x7a",
          "removed": false
        }
      ],
      "logsBloom": "0x00000000000000000000000000000000000000000000000800000040000000000000000000000000000000010000000000000000000000000000000000000000000000000000000000000000000000000000000000000000000000000001000000200000020000000000000000000800000000000000000000000000000000000000000000000000000000000000000000000000000000000000000000000000000000400200000000000008000000000000000000000000000000000000000000000000000000000000000000000000000000000000000000000000000020000000000000000000000000000000000400000000000000000000000000000000",
      "type": "0x2",
      "transactionHash": "0xc8f69e43652256884fda298a077491e58af812da1f9ae593c2f1ae4c7fde6b66",
      "transactionIndex": "0x29",
      "blockHash": "0x9587e7faa77162088c3777ad324885bfd2593c15d332c73c23be94663fbe349d",
      "blockNumber": "0x182172e",
      "gasUsed": "0x2ebae",
      "effectiveGasPrice": "0xf0aa3",
      "from": "0x796bf5d41d2ed38f696b7cec2cc039d182b2e0db",
      "to": "0x469e9b58443e6b455f122521d41040d57ce8eca8",
      "contractAddress": null,
      "l1BaseFeeScalar": "0x44d",
      "l1BlobBaseFee": "0x1",
      "l1BlobBaseFeeScalar": "0xa118b",
      "l1Fee": "0x1903f17a7b",
      "l1GasPrice": "0xe334c9fd5",
      "l1GasUsed": "0x640"
    }
  ],
  "libraries": [],
  "pending": [],
  "returns": {},
  "timestamp": 1746373948,
  "chain": 84532,
  "commit": "5297405"
}