{
  "transactions": [
    {
      "hash": "0xf0f16cc8c2abcc7f0abbff838bf96e2356ed73fc99895122958c4c2c580dbab8",
      "transactionType": "CALL",
      "contractName": null,
      "contractAddress": "0x1ca241d5b19b0707fbd0d54f9dd1ab3f66d7261c",
      "function": "createDrop(uint256,uint256,uint256,bool,bool,uint32)",
      "arguments": [
        "1000000000000000",
        "4000000000000000",
        "4",
        "true",
        "true",
        "2"
      ],
      "transaction": {
        "from": "0x796bf5d41d2ed38f696b7cec2cc039d182b2e0db",
        "to": "0x1ca241d5b19b0707fbd0d54f9dd1ab3f66d7261c",
        "gas": "0x417d5",
        "value": "0x0",
        "input": "0x8478a6d800000000000000000000000000000000000000000000000000038d7ea4c68000000000000000000000000000000000000000000000000000000e35fa931a00000000000000000000000000000000000000000000000000000000000000000004000000000000000000000000000000000000000000000000000000000000000100000000000000000000000000000000000000000000000000000000000000010000000000000000000000000000000000000000000000000000000000000002",
        "nonce": "0x31e",
        "chainId": "0x14a34"
      },
      "additionalContracts": [],
      "isFixedGasLimit": false
    }
  ],
  "receipts": [
    {
      "status": "0x1",
      "cumulativeGasUsed": "0x508b76",
      "logs": [
        {
          "address": "0x1ca241d5b19b0707fbd0d54f9dd1ab3f66d7261c",
          "topics": [
            "0x29574360eefbb5922c7bc9cb3ddf5b79d8a9ad9d223d54d4dc1cbc95ec2b6613",
            "0x0000000000000000000000000000000000000000000000000000000000000001",
            "0x000000000000000000000000796bf5d41d2ed38f696b7cec2cc039d182b2e0db"
          ],
          "data": "0x00000000000000000000000000000000000000000000000000038d7ea4c68000000000000000000000000000000000000000000000000000000e35fa931a00000000000000000000000000000000000000000000000000000000000000000004000000000000000000000000000000000000000000000000000000000000000100000000000000000000000000000000000000000000000000000000000000010000000000000000000000000000000000000000000000000000000000000002",
          "blockHash": "0xb7e5eaf353255d118e7829b6c684c73a0e40a040edb44b0f899b9d0141a4998c",
          "blockNumber": "0x1821ec5",
          "blockTimestamp": "0x68179c6a",
          "transactionHash": "0xf0f16cc8c2abcc7f0abbff838bf96e2356ed73fc99895122958c4c2c580dbab8",
          "transactionIndex": "0x34",
          "logIndex": "0x4f",
          "removed": false
        }
      ],
      "logsBloom": "0x00000000000000000000000000000000000000000000000800000000000000000000000000000000000000010000000000000000000000000000000000040000000000040000000000000000000000000000000000040000000000000001000000000000000000000000000000000000000000000000000000000000000000000000000000000000000000000000000000000000000000000000000000000000000000000200000000000008000000000000000000000000000000000000000000000000000000000000000002000000000000100000000000000000000040000000000000000000000000000000000400000000000000000000000000000000",
      "type": "0x2",
      "transactionHash": "0xf0f16cc8c2abcc7f0abbff838bf96e2356ed73fc99895122958c4c2c580dbab8",
      "transactionIndex": "0x34",
      "blockHash": "0xb7e5eaf353255d118e7829b6c684c73a0e40a040edb44b0f899b9d0141a4998c",
      "blockNumber": "0x1821ec5",
      "gasUsed": "0x2f69e",
      "effectiveGasPrice": "0xe9aa1",
      "from": "0x796bf5d41d2ed38f696b7cec2cc039d182b2e0db",
      "to": "0x1ca241d5b19b0707fbd0d54f9dd1ab3f66d7261c",
      "contractAddress": null,
      "l1BaseFeeScalar": "0x44d",
      "l1BlobBaseFee": "0x1",
      "l1BlobBaseFeeScalar": "0xa118b",
      "l1Fee": "0x11fafd2871",
      "l1GasPrice": "0xa34f58cee",
      "l1GasUsed": "0x640"
    }
  ],
  "libraries": [],
  "pending": [],
  "returns": {},
  "timestamp": 1746377836,
  "chain": 84532,
  "commit": "5297405"
}