{
  "transactions": [
    {
      "hash": "0x99c43cb34d95e398f2ab977b759e0b0689fc53e6438b357813e9b35d0c365e4f",
      "transactionType": "CALL",
      "contractName": null,
      "contractAddress": "0x786190c74e45df73b6fd8b61a9664bcb855e6ddb",
      "function": "createDrop(uint256,uint256,uint256,bool,bool,uint32)",
      "arguments": [
        "1000000000000000",
        "4000000000000000",
        "4",
        "true",
        "true",
        "2"
      ],
      "transaction": {
        "from": "0x796bf5d41d2ed38f696b7cec2cc039d182b2e0db",
        "to": "0x786190c74e45df73b6fd8b61a9664bcb855e6ddb",
        "gas": "0x408ba",
        "value": "0x0",
        "input": "0x8478a6d800000000000000000000000000000000000000000000000000038d7ea4c68000000000000000000000000000000000000000000000000000000e35fa931a00000000000000000000000000000000000000000000000000000000000000000004000000000000000000000000000000000000000000000000000000000000000100000000000000000000000000000000000000000000000000000000000000010000000000000000000000000000000000000000000000000000000000000002",
        "nonce": "0x30d",
        "chainId": "0x14a34"
      },
      "additionalContracts": [],
      "isFixedGasLimit": false
    }
  ],
  "receipts": [
    {
      "status": "0x1",
      "cumulativeGasUsed": "0x582beb",
      "logs": [
        {
          "address": "0x786190c74e45df73b6fd8b61a9664bcb855e6ddb",
          "topics": [
            "0x29574360eefbb5922c7bc9cb3ddf5b79d8a9ad9d223d54d4dc1cbc95ec2b6613",
            "0x0000000000000000000000000000000000000000000000000000000000000000",
            "0x000000000000000000000000796bf5d41d2ed38f696b7cec2cc039d182b2e0db"
          ],
          "data": "0x00000000000000000000000000000000000000000000000000038d7ea4c68000000000000000000000000000000000000000000000000000000e35fa931a00000000000000000000000000000000000000000000000000000000000000000004000000000000000000000000000000000000000000000000000000000000000100000000000000000000000000000000000000000000000000000000000000010000000000000000000000000000000000000000000000000000000000000002",
          "blockHash": "0x015807a25f8a5e2c8340760653e18a95ef702787cfe214fcd609f6bfbc2a9697",
          "blockNumber": "0x1818e66",
          "blockTimestamp": "0x68167bac",
          "transactionHash": "0x99c43cb34d95e398f2ab977b759e0b0689fc53e6438b357813e9b35d0c365e4f",
          "transactionIndex": "0x30",
          "logIndex": "0x4d",
          "removed": false
        }
      ],
      "logsBloom": "0x00000000000000000000000002000000000000000000000800000000000000000000000000000000000000010000000000000000000000000000000000000000000000000000000000000000000000000000000000000000000000000001000000000000020000000000000000000800000000000000000000000000000000000000000000000000000000000000000000000000000000000000000000000000000000000200000000000008000000000000000000000000000000000000000000000000000000000000000000000000000000000000000000040000000020000000000000000000000000000000000400000008000000000000000000000000",
      "type": "0x2",
      "transactionHash": "0x99c43cb34d95e398f2ab977b759e0b0689fc53e6438b357813e9b35d0c365e4f",
      "transactionIndex": "0x30",
      "blockHash": "0x015807a25f8a5e2c8340760653e18a95ef702787cfe214fcd609f6bfbc2a9697",
      "blockNumber": "0x1818e66",
      "gasUsed": "0x2ebae",
      "effectiveGasPrice": "0xe5ccb",
      "from": "0x796bf5d41d2ed38f696b7cec2cc039d182b2e0db",
      "to": "0x786190c74e45df73b6fd8b61a9664bcb855e6ddb",
      "contractAddress": null,
      "l1BaseFeeScalar": "0x44d",
      "l1BlobBaseFee": "0x1",
      "l1BlobBaseFeeScalar": "0xa118b",
      "l1Fee": "0x5c470b2c2",
      "l1GasPrice": "0x3461fe31f",
      "l1GasUsed": "0x640"
    }
  ],
  "libraries": [],
  "pending": [],
  "returns": {},
  "timestamp": 1746303918,
  "chain": 84532,
  "commit": "5297405"
}