{
  "transactions": [
    {
      "hash": "0xcb7d76821f58c5a6a85445e8df01e4adee5e658cb3c1c52e255115effaf6c043",
      "transactionType": "CALL",
      "contractName": null,
      "contractAddress": "0x469e9b58443e6b455f122521d41040d57ce8eca8",
      "function": "createDrop(uint256,uint256,uint256,bool,bool,uint32)",
      "arguments": [
        "0",
        "1000000000000000",
        "4",
        "false",
        "false",
        "1"
      ],
      "transaction": {
        "from": "0x796bf5d41d2ed38f696b7cec2cc039d182b2e0db",
        "to": "0x469e9b58443e6b455f122521d41040d57ce8eca8",
        "gas": "0x3d49c",
        "value": "0x38d7ea4c68000",
        "input": "0x8478a6d8000000000000000000000000000000000000000000000000000000000000000000000000000000000000000000000000000000000000000000038d7ea4c680000000000000000000000000000000000000000000000000000000000000000004000000000000000000000000000000000000000000000000000000000000000000000000000000000000000000000000000000000000000000000000000000000000000000000000000000000000000000000000000000000000000000000001",
        "nonce": "0x31b",
        "chainId": "0x14a34"
      },
      "additionalContracts": [],
      "isFixedGasLimit": false
    }
  ],
  "receipts": [
    {
      "status": "0x1",
      "cumulativeGasUsed": "0x65760b",
      "logs": [
        {
          "address": "0x469e9b58443e6b455f122521d41040d57ce8eca8",
          "topics": [
            "0x29574360eefbb5922c7bc9cb3ddf5b79d8a9ad9d223d54d4dc1cbc95ec2b6613",
            "0x0000000000000000000000000000000000000000000000000000000000000005",
            "0x000000000000000000000000796bf5d41d2ed38f696b7cec2cc039d182b2e0db"
          ],
          "data": "0x000000000000000000000000000000000000000000000000000000000000000000000000000000000000000000000000000000000000000000038d7ea4c680000000000000000000000000000000000000000000000000000000000000000004000000000000000000000000000000000000000000000000000000000000000000000000000000000000000000000000000000000000000000000000000000000000000000000000000000000000000000000000000000000000000000000001",
          "blockHash": "0xce93a185ce27cb6d02a5432ffbd24418b69f4077e4c625a41ca1e211c26ee523",
          "blockNumber": "0x1821da8",
          "blockTimestamp": "0x68179a30",
          "transactionHash": "0xcb7d76821f58c5a6a85445e8df01e4adee5e658cb3c1c52e255115effaf6c043",
          "transactionIndex": "0x39",
          "logIndex": "0x4e",
          "removed": false
        }
      ],
      "logsBloom": "0x00000000000000000000000000000000000000000000000800000040000000000000000000000000000000010000000000000000000000000000000000000000000010000000000000000000000000000000000000000000000000000001000000200000000000000000000000000000000000000000000000000000000000000000000000000000000000000000001000000800000000000000000000000000000000400200000000000008000000000000000000000000000000000000000000000000000000000000000000000000000000000000000000000000000000000000000000000000000000000000000400000000000000000000000000000000",
      "type": "0x2",
      "transactionHash": "0xcb7d76821f58c5a6a85445e8df01e4adee5e658cb3c1c52e255115effaf6c043",
      "transactionIndex": "0x39",
      "blockHash": "0xce93a185ce27cb6d02a5432ffbd24418b69f4077e4c625a41ca1e211c26ee523",
      "blockNumber": "0x1821da8",
      "gasUsed": "0x29e81",
      "effectiveGasPrice": "0xf4536",
      "from": "0x796bf5d41d2ed38f696b7cec2cc039d182b2e0db",
      "to": "0x469e9b58443e6b455f122521d41040d57ce8eca8",
      "contractAddress": null,
      "l1BaseFeeScalar": "0x44d",
      "l1BlobBaseFee": "0x1",
      "l1BlobBaseFeeScalar": "0xa118b",
      "l1Fee": "0xb2e56eb7a",
      "l1GasPrice": "0x658da25bb",
      "l1GasUsed": "0x640"
    }
  ],
  "libraries": [],
  "pending": [],
  "returns": {},
  "timestamp": 1746377266,
  "chain": 84532,
  "commit": "5297405"
}