{
  "transactions": [
    {
      "hash": "0xaecb06ae6a77a64f82527aa3e6c6a9c7ac5ff4de4dda18728d4816e89a89168e",
      "transactionType": "CALL",
      "contractName": null,
      "contractAddress": "0x786190c74e45df73b6fd8b61a9664bcb855e6ddb",
      "function": "createDrop(uint256,uint256,uint256,bool,bool,uint32)",
      "arguments": [
        "0",
        "1000000000000000",
        "4",
        "false",
        "false",
        "2"
      ],
      "transaction": {
        "from": "0x796bf5d41d2ed38f696b7cec2cc039d182b2e0db",
        "to": "0x786190c74e45df73b6fd8b61a9664bcb855e6ddb",
        "gas": "0x3e1f4",
        "value": "0x38d7ea4c68000",
        "input": "0x8478a6d8000000000000000000000000000000000000000000000000000000000000000000000000000000000000000000000000000000000000000000038d7ea4c680000000000000000000000000000000000000000000000000000000000000000004000000000000000000000000000000000000000000000000000000000000000000000000000000000000000000000000000000000000000000000000000000000000000000000000000000000000000000000000000000000000000000000002",
        "nonce": "0x30f",
        "chainId": "0x14a34"
      },
      "additionalContracts": [],
      "isFixedGasLimit": false
    }
  ],
  "receipts": [
    {
      "status": "0x1",
      "cumulativeGasUsed": "0x458e3e",
      "logs": [
        {
          "address": "0x786190c74e45df73b6fd8b61a9664bcb855e6ddb",
          "topics": [
            "0x29574360eefbb5922c7bc9cb3ddf5b79d8a9ad9d223d54d4dc1cbc95ec2b6613",
            "0x0000000000000000000000000000000000000000000000000000000000000002",
            "0x000000000000000000000000796bf5d41d2ed38f696b7cec2cc039d182b2e0db"
          ],
          "data": "0x000000000000000000000000000000000000000000000000000000000000000000000000000000000000000000000000000000000000000000038d7ea4c680000000000000000000000000000000000000000000000000000000000000000004000000000000000000000000000000000000000000000000000000000000000000000000000000000000000000000000000000000000000000000000000000000000000000000000000000000000000000000000000000000000000000000002",
          "blockHash": "0x304ad911cfae17fe2cbba68402cc5a0f7086717d66ff09a3dd02c38f4874aa87",
          "blockNumber": "0x1818fbf",
          "blockTimestamp": "0x68167e5e",
          "transactionHash": "0xaecb06ae6a77a64f82527aa3e6c6a9c7ac5ff4de4dda18728d4816e89a89168e",
          "transactionIndex": "0x24",
          "logIndex": "0x5d",
          "removed": false
        }
      ],
      "logsBloom": "0x04000000000000000000000002000000000000000000000800000000000000000000000000000000000000010000000000000000000000000000000000000000000000000000000000000000000000000000000000000000000000000001000000000000000000000000000000000000000000000000000000000000000000000000000000000000000000000000000000000000000000000000000000000000000000000200000000000108000000000000000000000000000000000000000000000000000000000000000000000000000000000000000000040000000000000000000000000000000000000000000400000008008000000000000000000000",
      "type": "0x2",
      "transactionHash": "0xaecb06ae6a77a64f82527aa3e6c6a9c7ac5ff4de4dda18728d4816e89a89168e",
      "transactionIndex": "0x24",
      "blockHash": "0x304ad911cfae17fe2cbba68402cc5a0f7086717d66ff09a3dd02c38f4874aa87",
      "blockNumber": "0x1818fbf",
      "gasUsed": "0x2a7a1",
      "effectiveGasPrice": "0xece64",
      "from": "0x796bf5d41d2ed38f696b7cec2cc039d182b2e0db",
      "to": "0x786190c74e45df73b6fd8b61a9664bcb855e6ddb",
      "contractAddress": null,
      "l1BaseFeeScalar": "0x44d",
      "l1BlobBaseFee": "0x1",
      "l1BlobBaseFeeScalar": "0xa118b",
      "l1Fee": "0x2880bf4fd",
      "l1GasPrice": "0x16fdfb96e",
      "l1GasUsed": "0x640"
    }
  ],
  "libraries": [],
  "pending": [],
  "returns": {},
  "timestamp": 1746304607,
  "chain": 84532,
  "commit": "5297405"
}