{
  "transactions": [
    {
      "hash": "0xb70015e6761df1abcc07a3d4732d8db3531015f90aa88ce55e2810ad435efe6c",
      "transactionType": "CALL",
      "contractName": null,
      "contractAddress": "0x68c3a6915e69e28222b79255bede08a1f3303e84",
      "function": "createDrop(uint256,uint256,uint256,bool,bool,uint32)",
      "arguments": [
        "0",
        "1000000000000000",
        "4",
        "false",
        "false",
        "2"
      ],
      "transaction": {
        "from": "0x796bf5d41d2ed38f696b7cec2cc039d182b2e0db",
        "to": "0x68c3a6915e69e28222b79255bede08a1f3303e84",
        "gas": "0x3e1f4",
        "value": "0x38d7ea4c68000",
        "input": "0x8478a6d8000000000000000000000000000000000000000000000000000000000000000000000000000000000000000000000000000000000000000000038d7ea4c680000000000000000000000000000000000000000000000000000000000000000004000000000000000000000000000000000000000000000000000000000000000000000000000000000000000000000000000000000000000000000000000000000000000000000000000000000000000000000000000000000000000000000002",
        "nonce": "0x325",
        "chainId": "0x14a34"
      },
      "additionalContracts": [],
      "isFixedGasLimit": false
    }
  ],
  "receipts": [
    {
      "status": "0x1",
      "cumulativeGasUsed": "0x6990a3",
      "logs": [
        {
          "address": "0x68c3a6915e69e28222b79255bede08a1f3303e84",
          "topics": [
            "0x29574360eefbb5922c7bc9cb3ddf5b79d8a9ad9d223d54d4dc1cbc95ec2b6613",
            "0x0000000000000000000000000000000000000000000000000000000000000002",
            "0x000000000000000000000000796bf5d41d2ed38f696b7cec2cc039d182b2e0db"
          ],
          "data": "0x000000000000000000000000000000000000000000000000000000000000000000000000000000000000000000000000000000000000000000038d7ea4c680000000000000000000000000000000000000000000000000000000000000000004000000000000000000000000000000000000000000000000000000000000000000000000000000000000000000000000000000000000000000000000000000000000000000000000000000000000000000000000000000000000000000000002",
          "blockHash": "0x37c08ead88d7e96c28d7cb73bd0625e786934c019539c6b8eed33d55cebf2b95",
          "blockNumber": "0x18220e6",
          "blockTimestamp": "0x6817a0ac",
          "transactionHash": "0xb70015e6761df1abcc07a3d4732d8db3531015f90aa88ce55e2810ad435efe6c",
          "transactionIndex": "0x67",
          "logIndex": "0x4d",
          "removed": false
        }
      ],
      "logsBloom": "0x04000000000000000000000000000000000000000000000800000000000000000000000000000000000010010000000000000000000004000000000000000000000000000000000000000000000000000000000000000000000000000001000000000000000000000000000000000000000000000000000000000000000000000000000000000000000000000000008000000000000000000000000000000000000000000200000000000108000000000000000000000000000000000000000000000000000000000000000000000000000000000000000000000000000000000000000000000000000000000000000400000000008000000000000000000000",
      "type": "0x2",
      "transactionHash": "0xb70015e6761df1abcc07a3d4732d8db3531015f90aa88ce55e2810ad435efe6c",
      "transactionIndex": "0x67",
      "blockHash": "0x37c08ead88d7e96c28d7cb73bd0625e786934c019539c6b8eed33d55cebf2b95",
      "blockNumber": "0x18220e6",
      "gasUsed": "0x2a7a1",
      "effectiveGasPrice": "0xf0a8d",
      "from": "0x796bf5d41d2ed38f696b7cec2cc039d182b2e0db",
      "to": "0x68c3a6915e69e28222b79255bede08a1f3303e84",
      "contractAddress": null,
      "l1BaseFeeScalar": "0x44d",
      "l1BlobBaseFee": "0x1",
      "l1BlobBaseFeeScalar": "0xa118b",
      "l1Fee": "0x1a13965eee",
      "l1GasPrice": "0xecd809b96",
      "l1GasUsed": "0x640"
    }
  ],
  "libraries": [],
  "pending": [],
  "returns": {},
  "timestamp": 1746378926,
  "chain": 84532,
  "commit": "5297405"
}