{
  "transactions": [
    {
      "hash": "0xd0ab45c568453f2a212ecf013e88445636243add38dd575188e30ab99ae58a60",
      "transactionType": "CALL",
      "contractName": null,
      "contractAddress": "0x1ca241d5b19b0707fbd0d54f9dd1ab3f66d7261c",
      "function": "createDrop(uint256,uint256,uint256,bool,bool,uint32)",
      "arguments": [
        "0",
        "1000000000000000",
        "4",
        "false",
        "false",
        "2"
      ],
      "transaction": {
        "from": "0x796bf5d41d2ed38f696b7cec2cc039d182b2e0db",
        "to": "0x1ca241d5b19b0707fbd0d54f9dd1ab3f66d7261c",
        "gas": "0x3d1f5",
        "value": "0x38d7ea4c68000",
        "input": "0x8478a6d8000000000000000000000000000000000000000000000000000000000000000000000000000000000000000000000000000000000000000000038d7ea4c680000000000000000000000000000000000000000000000000000000000000000004000000000000000000000000000000000000000000000000000000000000000000000000000000000000000000000000000000000000000000000000000000000000000000000000000000000000000000000000000000000000000000000002",
        "nonce": "0x31d",
        "chainId": "0x14a34"
      },
      "additionalContracts": [],
      "isFixedGasLimit": false
    }
  ],
  "receipts": [
    {
      "status": "0x1",
      "cumulativeGasUsed": "0x1402e14",
      "logs": [
        {
          "address": "0x1ca241d5b19b0707fbd0d54f9dd1ab3f66d7261c",
          "topics": [
            "0x29574360eefbb5922c7bc9cb3ddf5b79d8a9ad9d223d54d4dc1cbc95ec2b6613",
            "0x0000000000000000000000000000000000000000000000000000000000000000",
            "0x000000000000000000000000796bf5d41d2ed38f696b7cec2cc039d182b2e0db"
          ],
          "data": "0x000000000000000000000000000000000000000000000000000000000000000000000000000000000000000000000000000000000000000000038d7ea4c680000000000000000000000000000000000000000000000000000000000000000004000000000000000000000000000000000000000000000000000000000000000000000000000000000000000000000000000000000000000000000000000000000000000000000000000000000000000000000000000000000000000000000002",
          "blockHash": "0x5abed6f265e72cd6137271fa8dff0ba8be9d79c59b70c6da1d25af1b16388b24",
          "blockNumber": "0x1821eb0",
          "blockTimestamp": "0x68179c40",
          "transactionHash": "0xd0ab45c568453f2a212ecf013e88445636243add38dd575188e30ab99ae58a60",
          "transactionIndex": "0x8d",
          "logIndex": "0x1bf",
          "removed": false
        }
      ],
      "logsBloom": "0x00000000000000000000000000000000000000000000000800000000000000000000000000000000000000010000000000000000000000000000000000000000000000040000000000000000000000000000000000000000000000000001000000000000020000000000000000000800000000000000000000000000000000000000000000000000000000000000000000000000000000000000000000000000000000000200000000000008000000000000000000000000000000000000000000000000000000000000000002000000000000100000000000000000000020000000000000000000000000000000000400000000000000000000000000000000",
      "type": "0x2",
      "transactionHash": "0xd0ab45c568453f2a212ecf013e88445636243add38dd575188e30ab99ae58a60",
      "transactionIndex": "0x8d",
      "blockHash": "0x5abed6f265e72cd6137271fa8dff0ba8be9d79c59b70c6da1d25af1b16388b24",
      "blockNumber": "0x1821eb0",
      "gasUsed": "0x29cb1",
      "effectiveGasPrice": "0xf452f",
      "from": "0x796bf5d41d2ed38f696b7cec2cc039d182b2e0db",
      "to": "0x1ca241d5b19b0707fbd0d54f9dd1ab3f66d7261c",
      "contractAddress": null,
      "l1BaseFeeScalar": "0x44d",
      "l1BlobBaseFee": "0x1",
      "l1BlobBaseFeeScalar": "0xa118b",
      "l1Fee": "0xed1988b23",
      "l1GasPrice": "0x8697e95fd",
      "l1GasUsed": "0x640"
    }
  ],
  "libraries": [],
  "pending": [],
  "returns": {},
  "timestamp": 1746377792,
  "chain": 84532,
  "commit": "5297405"
}