{
  "transactions": [
    {
      "hash": "0x117409ee5341ca426982e6df817eae2d11cf27d3d5a1f5fca763f5df3777c705",
      "transactionType": "CALL",
      "contractName": null,
      "contractAddress": "0x68c3a6915e69e28222b79255bede08a1f3303e84",
      "function": "createDrop(uint256,uint256,uint256,bool,bool,uint32)",
      "arguments": [
        "0",
        "1000000000000000",
        "4",
        "false",
        "false",
        "2"
      ],
      "transaction": {
        "from": "0x796bf5d41d2ed38f696b7cec2cc039d182b2e0db",
        "to": "0x68c3a6915e69e28222b79255bede08a1f3303e84",
        "gas": "0x3e1f4",
        "value": "0x38d7ea4c68000",
        "input": "0x8478a6d8000000000000000000000000000000000000000000000000000000000000000000000000000000000000000000000000000000000000000000038d7ea4c680000000000000000000000000000000000000000000000000000000000000000004000000000000000000000000000000000000000000000000000000000000000000000000000000000000000000000000000000000000000000000000000000000000000000000000000000000000000000000000000000000000000000000002",
        "nonce": "0x327",
        "chainId": "0x14a34"
      },
      "additionalContracts": [],
      "isFixedGasLimit": false
    }
  ],
  "receipts": [
    {
      "status": "0x1",
      "cumulativeGasUsed": "0x5146f1",
      "logs": [
        {
          "address": "0x68c3a6915e69e28222b79255bede08a1f3303e84",
          "topics": [
            "0x29574360eefbb5922c7bc9cb3ddf5b79d8a9ad9d223d54d4dc1cbc95ec2b6613",
            "0x0000000000000000000000000000000000000000000000000000000000000003",
            "0x000000000000000000000000796bf5d41d2ed38f696b7cec2cc039d182b2e0db"
          ],
          "data": "0x000000000000000000000000000000000000000000000000000000000000000000000000000000000000000000000000000000000000000000038d7ea4c680000000000000000000000000000000000000000000000000000000000000000004000000000000000000000000000000000000000000000000000000000000000000000000000000000000000000000000000000000000000000000000000000000000000000000000000000000000000000000000000000000000000000000002",
          "blockHash": "0xcc7c037ee0184c9298ac7643349df204c6cd03f29ceaeba937ab46166bf840ec",
          "blockNumber": "0x18221aa",
          "blockTimestamp": "0x6817a234",
          "transactionHash": "0x117409ee5341ca426982e6df817eae2d11cf27d3d5a1f5fca763f5df3777c705",
          "transactionIndex": "0x3f",
          "logIndex": "0x64",
          "removed": false
        }
      ],
      "logsBloom": "0x00000000000000000000000000000000000000000000000800000000000000000000000000000000000010010000000000000000020004000000000000000000000000000000000000000000000000000000000000000000000000000001000000000000000000000000000000000000000000000000000000000000000000000000000000000000000000000000008000000000000000000000000000000000000000000200000000000008000000000000000000800000000000000000400000000000000000000000000000000000000000000000000000000000000000000000000000000000000000000000000400000000000000000000000000000000",
      "type": "0x2",
      "transactionHash": "0x117409ee5341ca426982e6df817eae2d11cf27d3d5a1f5fca763f5df3777c705",
      "transactionIndex": "0x3f",
      "blockHash": "0xcc7c037ee0184c9298ac7643349df204c6cd03f29ceaeba937ab46166bf840ec",
      "blockNumber": "0x18221aa",
      "gasUsed": "0x2a7a1",
      "effectiveGasPrice": "0xf4518",
      "from": "0x796bf5d41d2ed38f696b7cec2cc039d182b2e0db",
      "to": "0x68c3a6915e69e28222b79255bede08a1f3303e84",
      "contractAddress": null,
      "l1BaseFeeScalar": "0x44d",
      "l1BlobBaseFee": "0x1",
      "l1BlobBaseFeeScalar": "0xa118b",
      "l1Fee": "0x126e4c1b5a",
      "l1GasPrice": "0xa766a726f",
      "l1GasUsed": "0x640"
    }
  ],
  "libraries": [],
  "pending": [],
  "returns": {},
  "timestamp": 1746379318,
  "chain": 84532,
  "commit": "5297405"
}