{
  "transactions": [
    {
      "hash": "0x8040ec5f7d8aaec6c96a04447001e171b743d6a8ced6a1385b4bdf6a75814554",
      "transactionType": "CALL",
      "contractName": null,
      "contractAddress": "0x469e9b58443e6b455f122521d41040d57ce8eca8",
      "function": "createDrop(uint256,uint256,uint256,bool,bool,uint32)",
      "arguments": [
        "0",
        "1000000000000000",
        "4",
        "false",
        "false",
        "2"
      ],
      "transaction": {
        "from": "0x796bf5d41d2ed38f696b7cec2cc039d182b2e0db",
        "to": "0x469e9b58443e6b455f122521d41040d57ce8eca8",
        "gas": "0x3e1f4",
        "value": "0x38d7ea4c68000",
        "input": "0x8478a6d8000000000000000000000000000000000000000000000000000000000000000000000000000000000000000000000000000000000000000000038d7ea4c680000000000000000000000000000000000000000000000000000000000000000004000000000000000000000000000000000000000000000000000000000000000000000000000000000000000000000000000000000000000000000000000000000000000000000000000000000000000000000000000000000000000000000002",
        "nonce": "0x317",
        "chainId": "0x14a34"
      },
      "additionalContracts": [],
      "isFixedGasLimit": false
    }
  ],
  "receipts": [
    {
      "status": "0x1",
      "cumulativeGasUsed": "0xb67ae5",
      "logs": [
        {
          "address": "0x469e9b58443e6b455f122521d41040d57ce8eca8",
          "topics": [
            "0x29574360eefbb5922c7bc9cb3ddf5b79d8a9ad9d223d54d4dc1cbc95ec2b6613",
            "0x0000000000000000000000000000000000000000000000000000000000000003",
            "0x000000000000000000000000796bf5d41d2ed38f696b7cec2cc039d182b2e0db"
          ],
          "data": "0x000000000000000000000000000000000000000000000000000000000000000000000000000000000000000000000000000000000000000000038d7ea4c680000000000000000000000000000000000000000000000000000000000000000004000000000000000000000000000000000000000000000000000000000000000000000000000000000000000000000000000000000000000000000000000000000000000000000000000000000000000000000000000000000000000000000002",
          "blockHash": "0xe37018d551c1af9a77951a48431ba2fd0da558f1a131cf51bab5063c742517bf",
          "blockNumber": "0x1821c31",
          "blockTimestamp": "0x68179742",
          "transactionHash": "0x8040ec5f7d8aaec6c96a04447001e171b743d6a8ced6a1385b4bdf6a75814554",
          "transactionIndex": "0x6c",
          "logIndex": "0xea",
          "removed": false
        }
      ],
      "logsBloom": "0x00000000000000000000000000000000000000000000000800000040000000000000000000000000000000010000000000000000020000000000000000000000000000000000000000000000000000000000000000000000000000000001000000200000000000000000000000000000000000000000000000000000000000000000000000000000000000000000000000000000000000000000000000000000000000400200000000000008000000000000000000800000000000000000400000000000000000000000000000000000000000000000000000000000000000000000000000000000000000000000000400000000000000000000000000000000",
      "type": "0x2",
      "transactionHash": "0x8040ec5f7d8aaec6c96a04447001e171b743d6a8ced6a1385b4bdf6a75814554",
      "transactionIndex": "0x6c",
      "blockHash": "0xe37018d551c1af9a77951a48431ba2fd0da558f1a131cf51bab5063c742517bf",
      "blockNumber": "0x1821c31",
      "gasUsed": "0x2a7a1",
      "effectiveGasPrice": "0xf4541",
      "from": "0x796bf5d41d2ed38f696b7cec2cc039d182b2e0db",
      "to": "0x469e9b58443e6b455f122521d41040d57ce8eca8",
      "contractAddress": null,
      "l1BaseFeeScalar": "0x44d",
      "l1BlobBaseFee": "0x1",
      "l1BlobBaseFeeScalar": "0xa118b",
      "l1Fee": "0xc5a6e8ed7",
      "l1GasPrice": "0x703344bd3",
      "l1GasUsed": "0x640"
    }
  ],
  "libraries": [],
  "pending": [],
  "returns": {},
  "timestamp": 1746376515,
  "chain": 84532,
  "commit": "5297405"
}